:100000000C9463000C948B000C948B000C94060DE4
:100010000C94060D0C94060D0C948B000C948B0024
:100020000C948B000C948B000C948B000C948B0024
:100030000C948B000C948B000C948B000C948B0014
:100040000C94B0080C948B000C94D40C0C94AE0C53
:100050000C948B000C948B000C948B000C948B00F4
:100060000C94A7060C948B0000000008000201000D
:100070000003040700000000000000000000000072
:10008000250028002B000000000023002600290086
:10009000040404040404040402020202020203032E
:1000A0000303030301020408102040800102040836
:1000B0001020010204081020000000002400270086
:1000C0002A007B16A91711241FBECFEFD8E0DEBF90
:1000D000CDBF25E0A0E8B3E001C01D92AD3CB20762
:1000E000E1F713E0A0E0B1E0ECE3FDE302C005902E
:1000F0000D92A038B107D9F710E0C2E6D0E004C0F5
:100100002197FE010E947F1CC136D107C9F70E94CA
:10011000400E0C94911E0C9400008F929F92AF920F
:10012000BF92CF92DF92EF92FF92CF93DF93A09195
:10013000C304882311F03A2F01C030E08091C40439
:1001400090E0880F991F8A579F4FC090C904D090A4
:10015000CA04E090CB04F090CC0440E050E0BA0137
:10016000FC01C591D49128812A2323130FC04A0191
:100170005B012FEF821A920AA20AB20A4C155D05A2
:100180006E057F0538F4B501A401EACF342F252F81
:10019000CB0104C030E020E080E090E0632F722FBC
:1001A000DF91CF91FF90EF90DF90CF90BF90AF9015
:1001B0009F908F900895CF92DF92EF92FF920F93CE
:1001C0001F93CF93DF93CDB7DEB7C054D1400FB6A6
:1001D000F894DEBF0FBECDBF0E94A4080091C504F5
:1001E0001091C6042091C7043091C8046B017C01B2
:1001F000C01AD10AE20AF30A40EDC41647E0D40659
:10020000E104F10418F48091CD04BCC06093C504EE
:100210007093C6048093C7049093C8041092C004DE
:100220001092BF041092BE041092BD041092BC0440
:1002300061E08091C1040E94FE076AEF70E080E0F7
:1002400090E00E946A0861E08091C1040E942E083B
:1002500060E08091C1040E94FE0764E170E080E0EC
:1002600090E00E946A08F89461E08091C1040E94C5
:10027000FE078BE990E00197F1F762E08091C104FD
:100280000E942E0883E290E00197F1F780E00E943F
:100290008D00672B682B692B21F41092CD04789484
:1002A0003EC081E00E948D00672B682B692BA9F36B
:1002B0008E010F5F1F4F6E018FEBC81A8EEFD80AA9
:1002C000780180E00E948D00F70160837183828352
:1002D000938381E00E948D00F70164837583868398
:1002E0009783F8E0EF0EF11CEC14FD0451F77894BD
:1002F00020E030E0F8014081518162817381C48047
:10030000D580E680F780411551056105710529F01A
:10031000C114D104E104F10421F41092CD0480E071
:1003200031C0F90183E0F595E7958A95E1F7E4544A
:10033000FB4F8081880F4C155D056E057F0508F425
:10034000816080832F5F3F4F085F1F4F2832310548
:1003500089F62091C00430E04091BC048091BD0436
:1003600090E0840F911D4091BE04840F911D409137
:10037000BF04840F911D99272817390771F681E072
:100380008093CD04C05CDE4F0FB6F894DEBF0FBE85
:10039000CDBFDF91CF911F910F91FF90EF90DF9034
:1003A000CF900895EF92FF920F931F93CF93DF9317
:1003B000EC01623018F08F8588608F876B8B1C8A08
:1003C00080E48D8B80E18E8B80E58F8B61E08C816A
:1003D0000E942E088D818F3F19F061E00E942E0847
:1003E00061E08E810E942E087E0187E0E80EF11CFC
:1003F00000E010E08F8584FD03C084E090E002C03F
:1004000088E090E0081719074CF461E0F70181914A
:100410007F010E942E080F5F1F4FECCF8BE39DE002
:100420000197F1F760E08C810E94FE0760E08E8109
:100430000E94FE078D818F3F19F060E00E94FE0749
:100440006F8564FD1DC063E0CE010E94960D0BE434
:1004500016E4C8010197F1F763E0CE010E94960D02
:10046000C8010197F1F763E0CE010E94960D83E584
:1004700092E00197F1F762E0CE010E94960D16C05E
:100480006062CE010E941C0E8BE496E40197F1F7A6
:100490006F856062CE010E941C0E83E592E0019799
:1004A000F1F76F856062CE010E941C0E6F8560625D
:1004B000CE010E941C0E84E0888B6CE0CE010E946D
:1004C0001C0ECE010E941F0E82E0898B66E0CE01D9
:1004D000DF91CF911F910F91FF90EF900C941C0E24
:1004E000CF92DF92EF92FF920E94DB008823A1F16E
:1004F0008091C2048B3041F178F18551823060F5F2
:100500006091BC0470E080E090E00E94F31720E06E
:1005100030E040E853E40E9454186B017C01809164
:10052000BD04682F70E080E090E00E94F5179B0109
:10053000AC01C701B6010E9464192DEC3CEC4CECF7
:100540005DE30E9454180CC06091BC0470E080E030
:1005500090E00E94F31704C060E070E080EC9FE739
:10056000FF90EF90DF90CF900895CF92DF92EF92BF
:10057000FF920F931F93CF93DF939091DA049F3FE5
:1005800039F48EBD00000DB407FEFDCF8EB544C01A
:10059000E82EC7E0D0E0D12C01E010E0DD0C60E0F7
:1005A0008091DA040E94FE07B8010C2E01C0660F8C
:1005B0000A94EAF76E218091D8040E94FE0761E058
:1005C0008091DA040E94FE072091D90430E0F901FD
:1005D000E859FF4F8491F901EC55FF4FC490F901A0
:1005E000E057FF4FF490FF2071F081110E94D50772
:1005F000EF2DF0E0EE0FFF1FEA57FF4FA591B491EA
:10060000EC91EC2129F4219708F0C8CF8D2D04C07E
:100610008D2D8160D82EF7CFDF91CF911F910F9153
:10062000FF90EF90DF90CF9008959091F00391119B
:10063000FCCF613208F060E291E09093F003909378
:10064000EF032FEF2093EE031092ED03260F20937C
:10065000EC039093EB039091EB03880F892B80932D
:10066000EB038091EA03813061F41092EA038091F8
:10067000EB038093BB008091BC0083FDF8CF85EC39
:1006800001C085EE8093BC008091F0038130E1F3DE
:100690008091ED03861710F46091ED03AAECB3E0AE
:1006A00023EF33E0F9018E2F821B861718F48D910A
:1006B0008193F9CF1092F2036093F103862F08958E
:1006C0002091C9039091C803213208F04AC080915B
:1006D000F0038111FCCF32E03093F00331E030932E
:1006E000EF033FEF3093EE031092ED032093EC0302
:1006F000A8EAB3E04AEC53E0FA013E2F341B32176C
:1007000018F43D913193F9CF1092EB032091EB0354
:10071000990F922B9093EB039091EA03913061F43F
:100720001092EA039091EB039093BB009091BC0070
:1007300093FDF8CF95EC01C095EE9093BC0090919D
:10074000F0039230E1F39091EE039F3F79F08091B6
:10075000EE03803241F08091EE03803331F084E08B
:1007600005C081E003C082E001C083E01092A703CE
:100770001092C9031092A6030895CF92DF92EF92D0
:10078000FF92CF93C82F8091D7048F3F09F040C0CC
:100790008091CE0491E09093A6038093C8031092B9
:1007A000A7031092C9036C2F83E194E00E94000616
:1007B0000E94600363E08091CE040E94150383E1F0
:1007C00094E00E94B4056C01990FEE08FF08FE2C1E
:1007D000ED2CDC2CCC2483E194E00E94B405AC0128
:1007E000990F660B770BC42AD52AE62AF72AFE2C26
:1007F000ED2CDC2CCC2483E194E00E94B405AC0108
:10080000990F660B770BC42AD52AE62AF72A33C03C
:100810008091DA048F3F21F482E591E00E94280E56
:1008200060E08091D7040E94FE078C2F80680E94B0
:10083000B50280E00E94B502C82ED12CE12CF12C2B
:10084000FE2CED2CDC2CCC2480E00E94B502C82AC2
:10085000FE2CED2CDC2CCC2480E00E94B502C82AB2
:1008600061E08091D7040E94FE078091DA048F3FF7
:1008700011F40E94270EC701B601CF91FF90EF90AF
:10088000DF90CF9008958F929F92AF92BF92CF92B8
:10089000DF92EF92FF928AEF0E94BD03EEECF4E04C
:1008A000458556854A01A12CB12CC72ED82EE92E9C
:1008B000FF24E7FCFA94C818D908EA08FB08DC0111
:1008C000CB0137E0B595A795979587953A95D1F7E0
:1008D000B501A401440F551F661F771F4C015D0130
:1008E000841A950AA60AB70AA5019401A785B089BA
:1008F0000E94151B4B015C013BE0B594A7949794B3
:1009000087943A95D1F7A7019601C701B6010E94D5
:10091000CF1A9B01AC016CE055954795379527950B
:100920006A95D1F7A189B2890E94151BDC01CB0120
:100930007EE0B595A795979587957A95D1F7A5010E
:100940009401280F391F4A1F5B1F25833683478375
:100950005087A5E0B0E00E941219DC01CB0180585D
:100960009F4FAF4FBF4F692F7A2F8B2F992787FD4E
:100970009A950E94F51720E030E048EC52E40E947E
:10098000D019FF90EF90DF90CF90BF90AF909F90E5
:100990008F900895643008F063E0909134056917F2
:1009A00010F06FEF690FE62FF0E0EF5DFA4F9489DA
:1009B000682F690F606881E295E00C941C0E8091AD
:1009C000080120E4829FC001112480937C00809163
:1009D0007A00806480937A0080917A0086FDFCCF53
:1009E000809178002091790090E0922B0895CF9328
:1009F000DF93C82F8091D7048F3F39F58091CE04C3
:100A000091E09093A6038093C8031092A7031092DD
:100A1000C9036C2F83E194E00E9400060E946003EA
:100A200062E08091CE040E94150383E194E00E946D
:100A3000B405C82F83E194E00E94B40520E030E0C3
:100A40003C2FE901C82BD92B29C08091DA048F3FB4
:100A500021F482E591E00E94280E60E08091D704A5
:100A60000E94FE078C2F80680E94B50280E00E94E1
:100A7000B502C82F80E00E94B5022C2F30E0322F43
:100A80002227E901C82B61E08091D7040E94FE076C
:100A90008091DA048F3F11F40E94270E9C2F8D2F36
:100AA000DF91CF9108950F931F93CF93DF93EC01C4
:100AB000A881B981ECEFF4E04481558160817181B6
:100AC0001296ED91FC91139709958C016BE771E0FB
:100AD000CE010E942B0E800F911FDF91CF911F91AD
:100AE0000F91089585ED8093BC008091BC0084FD3A
:100AF000FCCF1092F003089540916405262F30E05A
:100B0000240F311D21323105DCF42091F003243013
:100B1000C9F4FC0180E090E0861758F43091640538
:100B20002191DC01AE5BBA4FA30FB11D2C9301964E
:100B3000F3CF80916405680F6093640580E00895A9
:100B400081E0089582E008950895E091F203809194
:100B5000F103E81730F4F0E0ED50FC4F808190E0B5
:100B600008958FEF9FEF08959091F2038091F10324
:100B7000981750F4E92FF0E0ED50FC4F208130E061
:100B80009F5F9093F20302C02FEF3FEFC9010895DA
:100B90008091F10390E02091F203821B9109089566
:100BA000CF92DF92EF92FF920F931F93CF93DF9339
:100BB0007C01262F972F8A018091A603882391F02C
:100BC000C62FD72F6E01C40ED51ECC15DD0571F0D2
:100BD0006991D701ED91FC910190F081E02DC70161
:100BE0000995F3CF642F822F0E947C05C801DF9105
:100BF000CF911F910F91FF90EF90DF90CF900895CC
:100C0000CF93DF931F92CDB7DEB769832091A60300
:100C10002223D1F02091C903203240F021E030E0BE
:100C2000FC013383228380E090E015C08091A7030C
:100C3000E82FF0E0E855FC4F998190838F5F809317
:100C4000A7038093C90305C061E0CE0101960E940D
:100C50007C0581E090E00F90DF91CF9108953FB740
:100C6000F89480913E0590913F05A0914005B09188
:100C7000410526B5A89B05C02F3F19F00196A11D7F
:100C8000B11D3FBFBA2FA92F982F8827820F911D22
:100C9000A11DB11DBC01CD0142E0660F771F881F69
:100CA000991F4A95D1F708950895CF92DF92EF9258
:100CB000FF920F931F93CF93DF936C017A018B0107
:100CC000C0E0D0E0CE15DF0589F0D8016D918D012F
:100CD000D601ED91FC910190F081E02DC6010995BE
:100CE000892B11F47E0102C02196ECCFC701DF9160
:100CF000CF911F910F91FF90EF90DF90CF900895CB
:100D00000F931F93CF93DF93EC0188819981009714
:100D100029F02A813B812617370788F48B016F5F02
:100D20007F4F0E94B21D009761F0998388831B83D7
:100D30000A832C813D81232B11F4FC01108281E078
:100D400001C080E0DF91CF911F910F9108951F9214
:100D50000F920FB60F9211242F933F934F935F93EF
:100D60006F937F938F939F93AF93BF93EF93FF9373
:100D70008091B900887F803609F49CC068F588327C
:100D800009F45BC090F4803109F454C038F488232E
:100D900009F4F6C0883009F44DC0F6C0883109F472
:100DA0004CC0803209F45DC0EFC0803409F468C0E3
:100DB00048F4803309F455C0883309F0E5C08093C6
:100DC000EE03D8C0803509F44FC0883509F45DC002
:100DD000883409F0D9C0D6C0883909F4C7C0A8F44E
:100DE000883709F467C038F4883609F463C080375F
:100DF00009F460C0C9C0883809F4B8C0803909F462
:100E00005FC0803809F0C0C05BC0803B09F486C079
:100E100038F4803A09F466C0883A09F47FC0B4C057
:100E2000803C09F4A7C0883C09F4A4C0883B09F4BD
:100E30008AC0AAC08091EB0310C09091ED0380910D
:100E4000EC03981770F5E091ED0381E08E0F80932D
:100E5000ED03F0E0E653FC4F80818093BB0085EC0E
:100E600086C08093EE038EC0E091ED0381E08E0F8B
:100E70008093ED038091BB00F0E0E653FC4F80834C
:100E80009091ED038091EC036EC0E091ED0381E061
:100E90008E0F8093ED038091BB00F0E0E653FC4F92
:100EA00080838091EF0381116DC081E08093EA031C
:100EB00084EA61C083E08093F00310928805CFCF6D
:100EC00080918805803208F051C0E091880581E06A
:100ED0008E0F809388058091BB00F0E0E859FA4FAF
:100EE0008083BDCF85EC8093BC001092F00380918D
:100EF0008805803230F4E0918805F0E0E859FA4F37
:100F000010826091880570E0E0916605F0916705B8
:100F100088E695E009951092880536C084E08093B4
:100F2000F0031092650510926405E0916205F0915E
:100F30006305099580916405811105C081E0809366
:100F4000640510924205E091650581E08E0F809363
:100F50006505F0E0EE5BFA4F80818093BB009091D5
:100F6000650580916405981708F479CF85E880932A
:100F7000BC000AC085EC8093BC001092F00304C052
:100F80001092EE030E947205FF91EF91BF91AF9115
:100F90009F918F917F916F915F914F913F912F9191
:100FA0000F900FBE0F901F901895833081F028F49A
:100FB000813099F08230A1F008958730A9F088300F
:100FC000B9F08430D1F4809180008F7D03C080918E
:100FD00080008F7780938000089584B58F7702C05A
:100FE00084B58F7D84BD08958091B0008F7703C054
:100FF0008091B0008F7D8093B00008951F93CF93B0
:10100000DF93282F30E0F901E859FF4F8491F9016F
:10101000EC55FF4FD491F901E057FF4FC491CC2319
:10102000C9F0162F81110E94D507EC2FF0E0EE0FCA
:10103000FF1FE458FF4FA591B4918FB7F894111199
:1010400005C09C91ED2FE095E92302C0EC91ED2BBA
:10105000EC938FBFDF91CF911F910895CF93DF93D2
:1010600090E0FC01EC55FF4F2491FC01E057FF4F4D
:101070008491882361F190E0880F991FFC01E85466
:10108000FF4FC591D491FC01E458FF4FA591B49155
:10109000611109C09FB7F8948881209582238883C5
:1010A000EC912E230BC0623061F49FB7F894388125
:1010B000822F809583238883EC912E2B2C939FBFC6
:1010C00006C08FB7F894E8812E2B28838FBFDF915D
:1010D000CF9108958F929F92AF92BF92CF92DF925D
:1010E000EF92FF926B017C010E942F064B015C0185
:1010F000C114D104E104F104F1F00E942F06DC01D7
:10110000CB0188199909AA09BB09883E9340A1051A
:10111000B10570F321E0C21AD108E108F10888EEA8
:10112000880E83E0981EA11CB11CC114D104E104F7
:10113000F10419F7DDCFFF90EF90DF90CF90BF90D3
:10114000AF909F908F9008952FB7F89460913A05D3
:1011500070913B0580913C0590913D052FBF08950E
:101160001F920F920FB60F9211242F933F938F93DC
:101170009F93AF93BF9380913A0590913B05A091C7
:101180003C05B0913D053091390523E0230F2D3703
:1011900020F40196A11DB11D05C026E8230F02967B
:1011A000A11DB11D2093390580933A0590933B050D
:1011B000A0933C05B0933D0580913E0590913F057D
:1011C000A0914005B09141050196A11DB11D8093EC
:1011D0003E0590933F05A0934005B0934105BF9114
:1011E000AF919F918F913F912F910F900FBE0F90D4
:1011F0001F901895EF92FF920F931F93CF93DF9359
:1012000000D0CDB7DEB78C0169831A82FC01E4807F
:10121000F580FFEFEF1AFF0AB7010E9480068823CE
:1012200081F0F8012081318184819581BE016F5F59
:101230007F4F820F931F0E948A1EF801F582E4827D
:1012400081E00F900F90DF91CF911F910F91FF9050
:10125000EF900895CF93DF93EC01888199810097F7
:1012600011F00E941A1D198218821D821C821B8295
:101270001A82DF91CF910895CF92DF92EF92FF9281
:101280000F931F93CF93DF93CDB7DEB728970FB699
:10129000F894DEBF0FBECDBF8C01CB014AE09E01AA
:1012A0002F5F3F4F6901B9010E94B917F601019004
:1012B0000020E9F73197EC19FD09D8011496ED905B
:1012C000FC9015973097D9F0EE0EFF1EB701C801BC
:1012D0000E948006882381F0F80120813181848179
:1012E0009581B601820F931F0E948A1ED801159620
:1012F000FC92EE92149703C0C8010E942A09C8010B
:1013000028960FB6F894DEBF0FBECDBFDF91CF9108
:101310001F910F91FF90EF90DF90CF900895EF9283
:10132000FF920F931F93CF93DF93EC017B018A0110
:10133000BA010E948006811104C0CE010E942A09D0
:1013400007C01D830C83B701888199810E948A1E82
:10135000CE01DF91CF911F910F91FF90EF900895F3
:10136000CF93DF93EC01FB018617970761F0608153
:1013700071816115710529F0448155810E948F09A1
:1013800002C00E942A09CE01DF91CF9108954F92A9
:101390005F926F927F92EF92FF920F931F93CF9382
:1013A000DF93CDB7DEB7A1970FB6F894DEBF0FBEBF
:1013B000CDBF7C01FA01CB0119A2223008F42AE04A
:1013C0008E010F5D1F4F422E512C612C712CBF01DD
:1013D000A30192010E94F31AF901CA0101501109F7
:1013E0006A3014F4605D01C0695CD8016C93232BF2
:1013F000242B252B61F7B801C7010E942B0EA19663
:101400000FB6F894DEBF0FBECDBFDF91CF911F9115
:101410000F91FF90EF907F906F905F904F900895A5
:101420000F931F93CF93DF93EC010E942B0E8C013F
:101430006BE771E0CE010E942B0E800F911FDF91B0
:10144000CF911F910F910895DC01ED91FC910190D6
:10145000F081E02D09944F925F926F927F928F926C
:101460009F92AF92BF92CF92DF92EF92FF92CF9373
:10147000DF93EC016A017B01B22E9A01AB01C70137
:10148000B6010E94CA1A882319F064E773E027C0E6
:1014900026013701E89477F82FEF3FEF4FE75FE73A
:1014A000C301B2010E94CA1A81110DC02FEF3FEF94
:1014B0004FE75FE7C301B2010E94EE1718161CF454
:1014C00068E773E00CC02FEF3FEF4FE75FE4C70121
:1014D000B6010E94C51A18169CF46CE773E0CE01A1
:1014E000DF91CF91FF90EF90DF90CF90BF90AF90C2
:1014F0009F908F907F906F905F904F900C942B0EE9
:101500002FEF3FEF4FE75FECC701B6010E94EE17E8
:1015100087FDE3CF20E030E0A901C701B6010E94BA
:10152000EE1787FF0AC06DE2CE010E94240A4C012B
:10153000F7FAF094F7F8F09402C0812C912CA12CCA
:1015400060E070E080E09FE3AB1441F020E030E029
:1015500040E251E40E94D019A394F6CF9B01AC0164
:10156000C701B6010E9464192B013C010E94421A76
:101570006B017C010E94F3179B01AC01C301B20116
:101580000E9463192B013C012AE0B701A601CE019C
:101590000E94C7097C01E80CF91CBB2031F06EE207
:1015A000CE010E94240AE80EF91EDB2CDD2029F171
:1015B00020E030E040E251E4C301B2010E9454183F
:1015C0002B013C010E94421A4B01A12CB12C2AE0B4
:1015D000B501A401CE010E94C709E80EF91EC5019C
:1015E000B4010E94F3179B01AC01C301B2010E9438
:1015F00063192B013C01DA94D9CFC701DF91CF9158
:10160000FF90EF90DF90CF90BF90AF909F908F9022
:101610007F906F905F904F9008950C942B0A0C94DC
:101620002B0EFC01538D448D252F30E0842F90E04C
:10163000821B930B541710F0CF96089501970895CD
:10164000FC01918D828D981761F0828DDF01A80FCA
:10165000B11D5D968C91928D9F5F9F73928F90E0EC
:1016600008958FEF9FEF0895FC01918D828D98175B
:1016700031F0828DE80FF11D858D90E008958FEF98
:101680009FEF0895FC01918D228D892F90E0805C61
:101690009F4F821B91098F73992708958FE194E0E2
:1016A0000E94420B21E0892B09F420E0822F08954B
:1016B000FC01848DDF01A80FB11DA35ABF4F2C91EF
:1016C000848D90E001968F739927848FA689B789BE
:1016D0002C93A089B1898C9180648C93938D848D97
:1016E000981306C00288F389E02D80818F7D808366
:1016F0000895EF92FF920F931F93CF93DF93EC0126
:1017000081E0888F9B8D8C8D981305C0E889F989BD
:10171000808185FD24C0F62E0B8D10E00F5F1F4FDA
:101720000F731127E02E8C8DE8120CC00FB607FC4A
:10173000FACFE889F989808185FFF5CFCE010E9433
:10174000580BF1CF8B8DFE01E80FF11DE35AFF4FCF
:10175000F0820B8FEA89FB898081806207C0EE8965
:10176000FF896083E889F98980818064808381E0D2
:1017700090E0DF91CF911F910F91FF90EF9008952E
:10178000CF93DF93EC01888D8823C9F0EA89FB8928
:10179000808185FD05C0A889B9898C9186FD0FC01F
:1017A0000FB607FCF5CF808185FFF2CFA889B989F4
:1017B0008C9185FFEDCFCE010E94580BE7CFDF91D2
:1017C000CF91089580E090E0892B29F00E944E0B84
:1017D00081110C94000008952091820330918303BD
:1017E0002817390771F4909180038091810398172D
:1017F00041F0E0918003F0E0E757FA4F808190E0FC
:1018000008958FEF9FEF089508951F93CF93DF936F
:10181000DC015C962D913C915D972115310539F4E1
:1018200081E090E013969C938E9312973DC0519661
:10183000ED91FC91529750969C915097892F8095ED
:101840001FB75E964C915E9741FB772770F941FD7B
:101850006095F8944081772311F0492B01C048230B
:101860004083E9012197F1F748E0508160FF02C011
:10187000592B01C058235083E9012197F1F7669550
:10188000415099F7772321F090818923808303C009
:101890008081982B90831FBF5C968D919C915D9762
:1018A0000197F1F721E030E0C901DF91CF911F915D
:1018B000089520918203309183032817390771F42A
:1018C000809181032091800390E0805C9F4F821B78
:1018D000910960E470E00E94DF1A089580E090E0D2
:1018E0000895209182033091830328173907B9F4B2
:1018F0009091800380918103981789F0E091800393
:10190000F0E0E757FA4F80812091800330E02F5FAD
:101910003F4F2F7333272093800390E008958FEF7C
:101920009FEF0895089580E090E008950E947C1E46
:10193000CF93DF93EC0160E08E810E94FE0761E0AF
:101940008E810E94FE0760E08E810E94FE078BE878
:1019500091E00197F1F7DF91CF9108951F920F92D7
:101960000FB60F9211242F933F934F935F936F9372
:101970007F938F939F93AF93BF93EF93FF938FE1E9
:1019800094E00E94580BFF91EF91BF91AF919F910E
:101990008F917F916F915F914F913F912F910F9018
:1019A0000FBE0F901F9018951F920F920FB60F92B7
:1019B00011242F938F939F93EF93FF93E0912F0424
:1019C000F09130048081E0913504F091360482FD7D
:1019D00012C09081809138048F5F8F7320913904F9
:1019E000821751F0E0913804F0E0E15EFB4F958FF3
:1019F0008093380401C08081FF91EF919F918F9176
:101A00002F910F900FBE0F901F9018951F920F925D
:101A10000FB60F9211242F933F934F935F936F93C1
:101A20007F938F939F93AF93BF93EF93FF93E09137
:101A30008203F0918303309709F451C0968DA685F7
:101A4000B785858591FF04C09C91892329F447C0FF
:101A50009C91892309F043C0A389B4899C9185890D
:101A6000809589238C93868997890197F1F7608DFA
:101A7000718DA685B785558538E020E0CB010197AB
:101A8000F1F7822F90E095958795282F4C9145236B
:101A900009F02068315091F7868D81FD2095809165
:101AA000810390E001968F73992730918003381756
:101AB00049F0A0918103B0E0A757BA4F2C938093CF
:101AC000810303C0868D8160868F828D938D0197FF
:101AD000F1F7A389B4899C918589892B8C93FF9117
:101AE000EF91BF91AF919F918F917F916F915F9196
:101AF0004F913F912F910F900FBE0F901F9018950F
:101B0000E0918203F0918303E817F90769F4A38950
:101B1000B4899C918589809589238C931092830345
:101B20001092820381E0089580E00895CF92DF92C1
:101B3000EF92FF920F931F93CF93DF937C016C0181
:101B400087E0C80ED11CC0E0D0E0062F10E0B8013D
:101B50000C2E02C0759567950A94E2F76170F60144
:101B600081916F010E94FE072196C430D10579F75B
:101B7000C701DF91CF911F910F91FF90EF90DF9000
:101B8000CF900C94980CCF92DF92EF92FF920F932C
:101B90001F93CF93DF93EC01F62E642F8C810E946C
:101BA000FE078D818F3F19F060E00E94FE078F8550
:101BB0000F2D10E084FF25C06E0187E0C80ED11CF8
:101BC000E12CF12CB8010E2C02C0759567950A9492
:101BD000E2F76170F60181916F010E94FE07FFEF4D
:101BE000EF1AFF0A88E0E816F10461F7CE01DF91F1
:101BF000CF911F910F91FF90EF90DF90CF900C94B9
:101C0000980CB80184E0759567958A95E1F7CE0147
:101C10000E94960D6F2DCE01DF91CF911F910F91F4
:101C2000FF90EF90DF90CF900C94960D41E00E94D2
:101C3000C30D81E090E0089540E00C94C30D61E095
:101C40000E941C0E8BE39FE10197F1F70895089520
:101C50008CBD9DBD08956115710579F0FB01019062
:101C60000020E9F73197AF01461B570BDC01ED91DE
:101C7000FC910280F381E02D099480E090E00895CA
:101C8000CF93DF93CDB7DEB7AC970FB6F894DEBF36
:101C90000FBECDBF789484B5826084BD84B5816069
:101CA00084BD85B5826085BD85B5816085BD809127
:101CB0006E00816080936E0010928100809181009F
:101CC0008260809381008091810081608093810097
:101CD000809180008160809380008091B100846059
:101CE0008093B1008091B00081608093B0008091BA
:101CF0007A00846080937A0080917A008260809379
:101D00007A0080917A00816080937A0080917A00D5
:101D1000806880937A001092C100E0912F04F091C6
:101D2000300482E08083E0912B04F0912C04108237
:101D3000E0912D04F0912E048FEC808310923704F3
:101D4000E0913304F091340486E08083E091310423
:101D5000F0913204808180618083E0913104F091C0
:101D60003204808188608083E0913104F0913204F4
:101D7000808180688083E0913104F0913204808119
:101D80008F7D808310921D0510921C0510921B05FB
:101D900010921A0510921905109218058DE991E01C
:101DA00090931F0580931E0590910E05963108F0C3
:101DB00057C02DEB30E030931905209318052BE91F
:101DC00031E030931B0520931A052CE231E030936B
:101DD0001D0520931C0520916800983050F031E0DB
:101DE0009E3008F430E081E001C0880F3A95EAF7B0
:101DF00001C084E0822B80936800983038F09E30D8
:101E000040F0963148F020E030E008C02DE630E0A8
:101E100005C02BE630E002C02CE630E0309316051A
:101E200020931505983030F481E001C0880F9A9511
:101E3000EAF70EC0292F30E09E3018F428503109FF
:101E400002C02E50310981E001C0880F2A95EAF7BF
:101E50008093170580911E0590911F050197F1F75A
:101E600080911C0590911D05892B21F180918203A1
:101E70009091830325E082309207E1F0009711F002
:101E80000E94800D809120058E7F80932005109206
:101E900081031092800382E095E090938303809306
:101EA0008203E0911505F091160590818091170548
:101EB000892B808361E571E082E095E00E94100A41
:101EC00083E0809308018DE097E9A2E4BCE380936E
:101ED000890390938A03A0938B03B0938C0362E0F1
:101EE0008091C1040E942E0880E398EFAFEFBFEF0E
:101EF0008093C5049093C604A093C704B093C8040C
:101F000061E571E08FE194E00E94100A68EE73E0F1
:101F100080E090E00E946A0862E081E295E00E9421
:101F2000D20164E670E080E090E00E946A0860E41C
:101F300081E295E00E941C0E00E011E0F801619141
:101F40008F0181E295E00E94160EF1E008301F0734
:101F5000A9F764E670E080E090E00E946A0881E200
:101F600095E00E941F0E6BE671E081E295E00E9411
:101F70000F0B60ED77E080E090E00E946A080E941D
:101F8000DF0490938E0380938D036C01990FEE080C
:101F9000FF08C701B6010E94F5172091890330910F
:101FA0008A0340918B0350918C030E9454186093D4
:101FB0008503709386038093870390938803F7FECD
:101FC0000EC06DE28FE194E00E94240A4427552759
:101FD000BA014C195D096E097F092AE003C02AE0A5
:101FE000B701A6018FE194E00E94C70940918503E3
:101FF00050918603609187037091880322E08FE1FE
:1020000094E00E942B0A6BE771E08FE194E00E945C
:102010002B0E61E080E00E94CA046EE771E081E26D
:1020200095E00E940F0B40918503509186036091CB
:1020300087037091880322E030E081E295E00E94FE
:102040000D0B68EB7BE080E090E00E946A0881E283
:1020500095E00E941F0E60E082E00E94CA0486E7BD
:102060008093CE048091D7048F3F41F51092F20304
:102070001092F1031092A7031092C9031092F0037B
:1020800081E08093EF031092EA0361E082E10E9415
:10209000FE0761E083E10E94FE078091B9008E7F18
:1020A0008093B9008091B9008D7F8093B90088E456
:1020B0008093B80085E48093BC004EC061E00E942C
:1020C000FE0761E08091D7040E942E088091DA0417
:1020D0008F3F09F034C01FB7F894809184038111B9
:1020E00027C0EAE9F0E08491EEEAF0E09491E82F6D
:1020F000F0E0EE0FFF1FE854FF4FA591B491EC9173
:10210000E92321F461E08AE00E94FE0761E08AE0B1
:102110000E942E088CB580618CBD8CB580648CBD0E
:1021200061E08DE00E942E0861E08BE00E942E08A5
:10213000809184038F5F809384031FBF0DC061E093
:102140000E942E0861E08091D8040E942E0860E071
:102150008091D9040E942E088091D7048F3FE9F422
:102160008091CE0491E09093A6038093C8031092CF
:10217000A7031092C90360ED83E194E00E9400067A
:102180000E94600361E08091CE040E94150383E108
:1021900094E00E94B405182F1FC08091DA048F3F8D
:1021A00021F482E591E00E94280E60E08091D7043E
:1021B0000E94FE0780ED0E94B50280E00E94B502F9
:1021C000182F61E08091D7040E94FE078091DA0405
:1021D0008F3F11F40E94270E183509F08FC088E850
:1021E0000E94F7049093DC048093DB048AE80E9449
:1021F000F7049093DE048093DD048CE80E94F704DA
:102200009093E0048093DF048EE80E94F70490939B
:10221000E2048093E10480E90E94F7049093E404CF
:102220008093E30482E90E94F7049093E60480938C
:10223000E50484E90E94F7049093E8048093E7049E
:1022400086E90E94F7049093EA048093E90488E900
:102250000E94F7049093EC048093EB048AE90E94B7
:10226000F7049093EE048093ED048CE90E94F70448
:102270009093F0048093EF048EE90E94F70490930A
:10228000F2048093F1048091D7048F3FC1F48091D0
:10229000CE0491E09093A6038093C8031092A70305
:1022A0001092C90364EF83E194E00E9400066FE39B
:1022B00083E194E00E9400060E9460032CC080919C
:1022C000DA048F3F21F482E591E00E94280E60E05D
:1022D0008091D7040E94FE0784E70E94B5028FE335
:1022E0000E94B50261E08091D7040E94FE078091B0
:1022F000DA048F3F81F40E94270E0DC061E273E083
:102300008FE194E00E94100A67E673E081E295E0B5
:102310000E940F0BFFCF0E9470029B01AC010E9434
:10232000CA1A882369F067E871E08FE194E00E949F
:10233000100A6CEC71E081E295E00E940F0BFFCF78
:10234000FE013796FA87E9870E94A4080091A2034C
:102350001091A3032091A4033091A503DC01CB01CC
:10236000801B910BA20BB30B813D9740A105B105DA
:1023700008F4B5C40E94A4086093A2037093A30359
:102380008093A4039093A5030E9443046093960353
:102390007093970380939803909399030E9443044A
:1023A00087EF0E94BD036EA37FA388A799A78091A2
:1023B000D3049091D404A091D504B091D6046C01BB
:1023C0007D01FF0CCC08DC2C76019C01AD016C2D4D
:1023D0007C2D8C2D9C2D345F414051096109710980
:1023E000810991092B873C874D875E876F87788BA2
:1023F000898B9A8B59016A017B018C010E941D1BFC
:102400002E8F3F8F48A359A36AA37BA38CA39DA3C0
:102410003091EB043AA74091EC044B8B5091E904C6
:102420005BA78091EA048C8B9091E7049CA7E091D4
:10243000E804ED8BB090E404A090E3041B2D110F91
:10244000110BC12ED12EE12EF12E012F2B853C85B3
:102450004D855E856F85788989899A890E941D1BC3
:102460000CE00E94161C19012A013B014C01B0909E
:10247000E604A090E5041B2D110F110BC12ED12EE7
:10248000E12EF12E012F2E8D3F8D48A159A16AA179
:102490007BA18CA19DA10E941D1B08E00E942F1C06
:1024A00051016201730184010E944D1C70588F4FCD
:1024B0009F4F2090E1043090E2045101C12CD12CB7
:1024C000E12CF12C00E010E00E941D1B01E20E94B3
:1024D0002F1C2E8B3F8B488F598F6A8F7B8F8C8F51
:1024E0009D8FA0E00E945F1C09F461C1AAA41B8912
:1024F000110F110BBB88C12ED12EE12EF12E012F11
:102500002E8D3F8D48A159A16AA17BA18CA19DA1CF
:102510000E941D1B19012A013B014C01ABA41C891F
:10252000110F110BBC88C12ED12EE12EF12E012FDF
:102530002B853C854D855E856F85788989899A894B
:102540000E941D1B01E10E94161C59016A017B01BA
:102550008C019101A201B301C4010E944D1C19011B
:102560002A013B014C018EA19FA1A8A5B9A524E099
:10257000B595A795979587952A95D1F720E030E0F6
:1025800040E150E0281B390B4A0B5B0BDA01C90113
:1025900069017A01FF0CCC08DC2C76019C01AD01AD
:1025A0006C2D7C2D8C2D9C2D0FE10E94161CB22FC2
:1025B000A32FF42FE52F6B877C878D879E872CA513
:1025C0009D89990F990B3D89492F592F692F792F93
:1025D000892F03E20E94161C59016A017B018C01BC
:1025E0009101A201B301C4010E944D1C59016A016D
:1025F0007B018C012B2F3A2F4F2F5E2F6B857C8513
:102600008D859E850E94561C722E832E942EB52F8A
:10261000A62FF72FE82F592E03E00E94161CA72C97
:10262000B82CC92CDB2EEA2EFF2E0E2F152D0E9462
:10263000561C59016A017B01682E192F03E00E9484
:10264000161C062D0E94561C03E00E94161CA72C87
:10265000B82CC92CDB2EEA2EFF2E0E2F152D0E9432
:10266000561C02E00E94161C0E2F0E94561C01E010
:102670000E94161C0E2F0E94561CAE88BF88C88C64
:10268000D98CEA8CFB8C0C8D1D8D0E94781B2B87BE
:102690003C874D875E876F87788B898B9A8B0DE09F
:1026A0000E942F1C322E432E542E652E762E872EFE
:1026B000982E292E3091F2042091F104932F990F36
:1026C000990BA32CB42CC52CD62CE72CF82C092D57
:1026D000122D492F592F692F792F892F0E941D1BE9
:1026E0000E941D1B09E10E942F1C59016A017B01F8
:1026F0008C012B853C854D855E856F857889898920
:102700009A890E944D1C19012A013B014C0130910C
:10271000F0042091EF04932F990F990BAB84BC84A4
:10272000CD84DE84EF84F88809891A89492F592FCE
:10273000692F792F892F0E941D1B03E10E942F1CF6
:1027400059016A017B018C019101A201B301C4010D
:102750000E944D1C08E00E942F1C39014A01B62F2F
:10276000A72FF82FE92F3091EE042091ED04932F3D
:10277000990F990B492F592F692F792F892F04E031
:102780000E94161C59016A017B018C019301A4016E
:102790006B2F7A2F8F2F9E2F0E944D1C0E94711A33
:1027A00020E030E040E85BE30E94541803C060E0A2
:1027B00070E0CB012FE832EC45EF5BE30E94541848
:1027C00060939A0370939B0380939C0390939D0363
:1027D0000E94700260939E0370939F038093A003F6
:1027E0009093A1030E94A40828EE33E040E050E05B
:1027F0000E94F31AC9016CE370E00E94DF1AFB012A
:102800009093950380939403C90160E17EE00E9458
:10281000DF1A8B01709393036093920334EC3603B9
:10282000C001379F900D1124BF01680F791F70936D
:102830009103609390031A8219821C821B821E826C
:102840001D8240E34F831886E985FA8501900020B8
:10285000E9F73197AF0189859A85481B590BBE016D
:10286000695F7F4FCE0101960E948F098091FC0421
:102870009091FD04009789F069817A816115710555
:1028800051F04091FE045091FF042D813E8142178A
:10289000530708F027C20E941A1D89819A819093DC
:1028A000FD048093FC048B819C819093FF048093B2
:1028B000FE048D819E8190930105809300051A820C
:1028C00019821C821B821E821D8289819A810E942C
:1028D0001A1D1A8219821C821B821E821D826CEFB5
:1028E00074E0CE0101960E94B009B801CE010196B4
:1028F0000E943C098C016AE30E94FA08811103C01E
:10290000C8010E942A09B8018CEF94E00E94B00926
:1029100089819A810E941A1D009190031091910360
:102920000A3011052CF460E38CEF94E00E94FA0861
:102930001A8219821C821B821E821D826CEF74E037
:10294000CE0101960E94B009B801CE0101960E9405
:102950003C098C016AE30E94FA08811103C0C80196
:102960000E942A09B8018CEF94E00E94B009898185
:102970009A810E941A1D00919403109195030A30C8
:1029800011052CF460E38CEF94E00E94FA081A829F
:1029900019821C821B821E821D826CEF74E0CE01A4
:1029A00001960E94B009B801CE0101960E943C092F
:1029B000BC018CEF94E00E94B00989819A810E9449
:1029C0001A1D40909E0350909F036090A00370904A
:1029D000A103C0909A03D0909B03E0909C03F090D9
:1029E0009D038090960390909703A0909803B090D9
:1029F000990381E295E00E941F0E61E080E00E9451
:102A0000CA0468ED71E081E295E00E940F0B20E0BE
:102A100030E0B301A20181E295E00E940D0B69E074
:102A200073E081E295E00E940F0B60E088E00E9475
:102A3000CA046BED71E081E295E00E940F0B21E08A
:102A400030E0B501A40181E295E00E940D0B60E049
:102A500081E295E00E94160E67EF72E081E295E058
:102A60000E940F0B60E080E00E94CA046EED71E0EE
:102A700081E295E00E940F0B20E030E0B701A60153
:102A800081E295E00E940D0B61EE71E081E295E03C
:102A90000E940F0B61E088E00E94CA0481E295E089
:102AA0000E94530582E095E00E94590C892B09F49D
:102AB00016C182E095E00E94710C80938F038834E8
:102AC00009F4B1C054F5813409F447C0823409F4E3
:102AD000C1C08F3309F0F8C064EE71E082E095E088
:102AE0000E94100A6EE272E082E095E00E94100AF5
:102AF0006AE472E082E095E00E94100A68E672E003
:102B000082E095E00E94100A60E872E082E095E0C1
:102B10000E94100A65EB72E0DEC0843509F46CC0D7
:102B2000863509F4CCC0803509F0CEC069EF72E07B
:102B300082E095E00E940F0B40919A0350919B0315
:102B400060919C0370919D0322E030E082E095E06B
:102B50000E940D0B6DEF72E0BEC061EF72E082E08B
:102B600095E00E940F0B409196035091970360915E
:102B700098037091990322E030E082E095E00E9492
:102B80000D0B65EF72E082E095E00E94100A69EF9C
:102B900072E082E095E00E940F0B40919A03509101
:102BA0009B0360919C0370919D0322E030E082E0E2
:102BB00095E00E940D0B6DEF72E082E095E00E94BF
:102BC000100A64E073E082E095E00E940F0B4091F0
:102BD0009E0350919F036091A0037091A10322E096
:102BE00030E082E095E00E940D0B68E073E082E047
:102BF00095E00E94100A63C061EF72E082E095E008
:102C00000E940F0B40919603509197036091980397
:102C10007091990322E030E082E095E00E940D0B74
:102C200065EF72E058C064E073E082E095E00E94D6
:102C30000F0B40919E0350919F036091A0037091F0
:102C4000A10322E030E082E095E00E940D0B68E0F5
:102C500073E041C00E94DF0490938E0380938D0344
:102C6000BC01990F880B990B0E94F51720918903DD
:102C700030918A0340918B0350918C030E94541829
:102C800060938503709386038093870390938803F2
:102C90006EE771E082E095E00E940F0B40918503A2
:102CA00050918603609187037091880322E030E0A1
:102CB00082E095E00E940D0B6BE073E00CC082E0B7
:102CC00095E00E9453050BC0682F82E095E00E94BA
:102CD000240A6EE073E082E095E00E94100A0E94F0
:102CE000E20B32CB0E948A1E8D819E81909301055A
:102CF00080930005E8CDCF92DF92EF92FF92109281
:102D000016041092150498EEC92E93E0D92EE12CEA
:102D1000F12CC0921704D0921804E0921904F0929A
:102D20001A0483E191E090931404809313041092A9
:102D3000220410922104C0922304D0922404E09231
:102D40002504F092260485E291E09093200480937C
:102D50001F0485EC90E090932C0480932B0484EC6A
:102D600090E090932E0480932D0480EC90E090935B
:102D7000300480932F0481EC90E090933204809390
:102D8000310482EC90E0909334048093330486EC19
:102D900090E090933604809335041092380410929A
:102DA000390410923A0410923B04109224051092B8
:102DB000230589E491E0909322058093210589E021
:102DC000809325058FEF8093260588E08093270563
:102DD00087E08093280586E08093290585E080932D
:102DE0002A0584E080932B0510922C0510922D0566
:102DF00010922E0510922F051092300561E081E2AD
:102E000095E00E94D2011092050510920405C0922F
:102E10000605D0920705E0920805F092090587E3C0
:102E200091E090930305809302051092190510928A
:102E3000180510921B0510921A0510921D0510928C
:102E40001C0510921F0510921E05609120056E7FD3
:102E50006D7F609320056695617081E0682783E04F
:102E60000E94FE0761E083E00E942E08E7EAF0E09E
:102E7000E491E0931205E3E9F0E0E491F0E0EE0F75
:102E8000FF1FE458FF4F8591949190931405809310
:102E9000130560E082E00E942E088091200581FDEC
:102EA00004C061E082E00E94FE0782E080930E058C
:102EB000E6EAF0E0E491E0930F05E2E9F0E0E49166
:102EC000F0E0EE0FFF1FEA57FF4F8591949190932A
:102ED0001105809310051092FD041092FC041092CD
:102EE000FF041092FE04109201051092000540E0CC
:102EF00050E06DE771E08CEF94E00E948F098FEF56
:102F00008093D7048093D8048093D9048093DA0403
:102F100081E18093C1048BE08093C204E5EBF0E093
:102F2000E491E093C304E1EAF0E0E491E093C404A7
:102F300080E89EE3A0E0B0E08093C9049093CA04C7
:102F4000A093CB04B093CC04FF90EF90DF90CF9090
:102F500008958091FC049091FD040E941A1D87E35E
:102F600091E0909303058093020582E095E00C9434
:102F7000800DBB274A3031F4992322F4BDE29095AD
:102F800081959F4F0C94C517BB27FB015527AA2796
:102F9000880F991FAA1FA41710F0A41B83955051E6
:102FA000B9F7A05DAA3308F0A95DA193009779F75E
:102FB000B111B1931192CB010C94DE17DC01FC012D
:102FC000672F71917723E1F7329704C07C916D935D
:102FD00070836291AE17BF07C8F308950E9430183E
:102FE00008F481E00895E89409C097FB3EF49095B9
:102FF0008095709561957F4F8F4F9F4F9923A9F0D2
:10300000F92F96E9BB279395F69587957795679560
:10301000B795F111F8CFFAF4BB0F11F460FF1BC0A4
:103020006F5F7F4F8F4F9F4F16C0882311F096E937
:1030300011C0772321F09EE8872F762F05C06623E5
:1030400071F096E8862F70E060E02AF09A95660F9E
:10305000771F881FDAF7880F9695879597F9089557
:10306000990F0008550FAA0BE0E8FEEF1616170699
:10307000E807F907C0F012161306E407F50798F001
:10308000621B730B840B950B39F40A2661F0232B1A
:10309000242B252B21F408950A2609F4A140A69596
:1030A0008FEF811D811D08950E9467180C94D81818
:1030B0000E94CA1838F00E94D11820F0952311F010
:1030C0000C94C1180C94C71811240C940C190E946C
:1030D000E91870F3959FC1F3950F50E0551F629F5B
:1030E000F001729FBB27F00DB11D639FAA27F00D61
:1030F000B11DAA1F649F6627B00DA11D661F829F88
:103100002227B00DA11D621F739FB00DA11D621F6C
:10311000839FA00D611D221F749F3327A00D611D89
:10312000231F849F600D211D822F762F6A2F11246B
:103130009F5750409AF0F1F088234AF0EE0FFF1F9E
:10314000BB1F661F771F881F91505040A9F79E3FF5
:10315000510580F00C94C1180C940C195F3FE4F3F6
:10316000983ED4F3869577956795B795F795E7954B
:103170009F5FC1F7FE2B880F911D9695879597F954
:10318000089597F99F6780E870E060E008959FEFE9
:1031900080EC089500240A941616170618060906EE
:1031A000089500240A9412161306140605060895BD
:1031B000092E0394000C11F4882352F0BB0F40F445
:1031C000BF2B11F460FF04C06F5F7F4F8F4F9F4F85
:1031D000089557FD9058440F551F59F05F3F71F007
:1031E0004795880F97FB991F61F09F3F79F087956E
:1031F0000895121613061406551FF2CF4695F1DFF7
:1032000008C0161617061806991FF1CF8695710586
:10321000610508940895E894BB2766277727CB01BA
:1032200097F908950E945419A59F900DB49F900D91
:10323000A49F800D911D112408952F923F924F92CB
:103240005F926F927F928F929F92AF92BF92CF9236
:10325000DF92EF92FF920F931F93CF93DF93CDB73F
:10326000DEB7CA1BDB0B0FB6F894DEBF0FBECDBFB7
:1032700009942A88398848885F846E847D848C8488
:103280009B84AA84B984C884DF80EE80FD800C8191
:103290001B81AA81B981CE0FD11D0FB6F894DEBF74
:1032A0000FBECDBFED010895A29FB001B39FC00135
:1032B000A39F700D811D1124911DB29F700D811D62
:1032C0001124911D08955058BB27AA270E947B19ED
:1032D0000C94D8180E94CA1838F00E94D11820F017
:1032E00039F49F3F19F426F40C94C7180EF4E095B6
:1032F000E7FB0C94C118E92F0E94E91858F3BA179C
:10330000620773078407950720F079F4A6F50C94FB
:103310000B190EF4E0950B2EBA2FA02D0B01B9015D
:1033200090010C01CA01A0011124FF27591B99F03B
:10333000593F50F4503E68F11A16F040A22F232F47
:10334000342F4427585FF3CF469537952795A79597
:10335000F0405395C9F77EF41F16BA0B620B730B3E
:10336000840BBAF09150A1F0FF0FBB1F661F771FAF
:10337000881FC2F70EC0BA0F621F731F841F48F464
:10338000879577956795B795F7959E3F08F0B0CFED
:103390009395880F08F09927EE0F979587950895D4
:1033A0000E94E4190C94D8180E94D11858F00E9479
:1033B000CA1840F029F45F3F29F00C94C11851114C
:1033C0000C940C190C94C7180E94E91868F39923FF
:1033D000B1F3552391F3951B550BBB27AA27621711
:1033E0007307840738F09F5F5F4F220F331F441F1E
:1033F000AA1FA9F335D00E2E3AF0E0E832D0915052
:103400005040E695001CCAF72BD0FE2F29D0660F3E
:10341000771F881FBB1F261737074807AB07B0E881
:1034200009F0BB0B802DBF01FF2793585F4F3AF087
:103430009E3F510578F00C94C1180C940C195F3F15
:10344000E4F3983ED4F3869577956795B795F7950D
:103450009F5FC9F7880F911D9695879597F90895F5
:10346000E1E0660F771F881FBB1F62177307840791
:10347000BA0720F0621B730B840BBA0BEE1F88F7A0
:10348000E09508950E94F11888F09F5798F0B92FA1
:103490009927B751B0F0E1F0660F771F881F991F89
:1034A0001AF0BA95C9F714C0B13091F00E940B1907
:1034B000B1E008950C940B19672F782F8827B85F17
:1034C00039F0B93FCCF3869577956795B395D9F7E1
:1034D0003EF490958095709561957F4F8F4F9F4FEB
:1034E000089597FB16F40E94B51A0C94781AE89484
:1034F000F92F96EBFF2381F0121613061406440BE6
:103500009395F69587957795679557954040FF2356
:10351000B9F71BC099270895882351F49850D2F722
:10352000872B762F652F542F432F322F20E0B1F3B6
:10353000121613061406440B88233AF09A95440F8A
:10354000551F661F771F881FCAF755234AF4440F7B
:10355000551F11F460FF04C06F5F7F4F8F4F9F4F67
:10356000880F9695879597F9089590958095709511
:10357000609550954095309521953F4F4F4F5F4F47
:103580006F4F7F4F8F4F9F4F08950E94301808F460
:103590008FEF08950E943018880B990B0895DB0176
:1035A0008F939F930E941219BF91AF91A29F800D9C
:1035B000911DA39F900DB29F900D1124089597FB2C
:1035C000072E16F4009407D077FD09D00E946B1CDB
:1035D00007FC05D03EF4909581959F4F0895709516
:1035E00061957F4F0895A1E21A2EAA1BBB1BFD0116
:1035F0000DC0AA1FBB1FEE1FFF1FA217B307E407D2
:10360000F50720F0A21BB30BE40BF50B661F771F29
:10361000881F991F1A9469F7609570958095909509
:103620009B01AC01BD01CF010895B7FF0C941219A5
:103630000E941219821B930B0895DF93CF931F935F
:103640000F939A9DF02D219FF00D8B9DF00D8A9D7B
:10365000E02DF10D039FF00D029FE00DF11D4E9D39
:10366000E00DF11D5E9DF00D4F9DF00D7F936F936A
:10367000BF92AF925F934F93D5010E9454198B0173
:10368000AC01D7010E945419EB01E80FF91FD601D4
:103690000E946D1B2F913F91D6010E945419C60FB5
:1036A000D71FE81FF91FAF91BF910E946D1B2F918B
:1036B0003F910E945419C60FD71FE81FF91FD6016A
:1036C0000E945419E60FF71F9801BE01CF01112483
:1036D0000F911F91CF91DF9108950E945419460FC9
:1036E000571FC81FD91F08F431960895689401C068
:1036F000E894F92FF12B12F00C94AA1BA0E0B0E093
:10370000E4E8FBE10C942319092E059422F40E94AD
:10371000061C112392F4F0E80F26FFEFE094F094DA
:1037200000951095B094C094D094A194BF0ACF0A8C
:10373000DF0AEF0AFF0A0F0B1F0B0E94B51B07FCE5
:103740000E94061CCDB7DEB7ECE00C943F196894DC
:1037500001C0E8948F929F92CF93DF930E94B51B94
:10376000DF91CF919F908F90089588249924F40140
:10377000E401B0E49F93AA279A158B049C04ED05FD
:10378000FE05CF05D007A10798F4AD2FDC2FCF2F72
:10379000FE2FE92D982C892E982F872F762F652FB5
:1037A000542F432F322F2227B85031F7BF9127C013
:1037B0001B2EBF91BB27220F331F441F551F661FAF
:1037C000771F881F991F881C991CEE1FFF1FCC1F95
:1037D000DD1FAA1FBB1F8A149B04EC05FD05CE0547
:1037E000DF05A007B10748F08A189B08EC09FD091E
:1037F000CE09DF09A00BB10B21601A94E1F62EF47B
:103800009401AF01BE01CD01000C08956095709543
:103810008095909530954095509521953F4F4F4F0D
:103820005F4F6F4F7F4F8F4F9F4F08950F9308301B
:1038300090F0982F872F762F652F542F432F322FFC
:1038400022270850F4CF220F331F441F551F661F35
:10385000771F881F991F0A95B2F70F91089597FB5C
:1038600010F8169400080F93083098F00850232F92
:10387000342F452F562F672F782F892F902DF4CF77
:1038800005949795879577956795579547953795BB
:1038900027950A95AAF70F9108952A0D3B1D4C1DF7
:1038A0005D1D6E1D7F1D801F911F08952A193B0904
:1038B0004C095D096E097F09800B910B0895002466
:1038C000A7FD00942A1730054005500560057005D6
:1038D000800590050895AA1BBB1B51E107C0AA1FD4
:1038E000BB1FA617B70710F0A61BB70B881F991FA1
:1038F0005A95A9F780959095BC01CD010895EE0FDA
:10390000FF1F0590F491E02D0994CF93DF9382304F
:10391000910510F482E090E0E091CB05F091CC05A8
:1039200020E030E0C0E0D0E0309711F140815181DB
:1039300048175907C0F04817590761F482819381ED
:10394000209719F09B838A832BC09093CC0580939A
:10395000CB0526C02115310519F04217530718F47D
:103960009A01BE01DF01EF010280F381E02DDCCF7F
:103970002115310509F1281B390B2430310590F44C
:1039800012968D919C9113976115710521F0FB01A1
:103990009383828304C09093CC058093CB05FD0173
:1039A000329644C0FD01E20FF31F819391932250A0
:1039B00031092D933C933AC02091C9053091CA0535
:1039C000232B41F420910B0130910C013093CA0557
:1039D0002093C9052091090130910A012115310573
:1039E00041F42DB73EB740910D0150910E01241BBB
:1039F000350BE091C905F091CA05E217F307A0F471
:103A00002E1B3F0B2817390778F0AC014E5F5F4F34
:103A10002417350748F04E0F5F1F5093CA05409397
:103A2000C9058193919302C0E0E0F0E0CF01DF91FE
:103A3000CF9108950F931F93CF93DF93009709F4CD
:103A40008CC0FC013297138212820091CB05109139
:103A5000CC050115110581F420813181820F931F5E
:103A60002091C9053091CA052817390779F5F093D7
:103A7000CA05E093C90571C0D80140E050E0AE1717
:103A8000BF0750F412962D913C911397AD0121156B
:103A9000310509F1D901F3CF9D01DA013383228386
:103AA00060817181860F971F8217930769F4EC017B
:103AB00028813981260F371F2E5F3F4F31832083A6
:103AC0008A819B8193838283452B29F4F093CC05D3
:103AD000E093CB0542C01396FC93EE931297ED0151
:103AE000499159919E01240F351FE217F30771F494
:103AF00080819181840F951F029611969C938E93DD
:103B00008281938113969C938E931297E0E0F0E06C
:103B1000D80112968D919C911397009719F0F80196
:103B20008C01F6CF8D919C9198012E5F3F4F820FB3
:103B3000931F2091C9053091CA052817390769F4E8
:103B4000309729F41092CC051092CB0502C0138255
:103B500012821093CA050093C905DF91CF911F917E
:103B60000F910895A0E0B0E0E8EBFDE10C9421197D
:103B7000EC01009721F4CB010E94851CB8C0FC0128
:103B8000E60FF71F9C0122503109E217F30708F4F2
:103B9000ACC0D9010D911C91119706171707B0F011
:103BA0000530110508F49FC0C801049786179707D0
:103BB00008F499C002501109061B170B01931193C9
:103BC0006D937C93CF010E941A1D8DC05B01A01ADA
:103BD000B10A4C01800E911EA091CB05B091CC058D
:103BE00040E050E0E12CF12C109709F44AC0A815F0
:103BF000B905D1F56D907C901197630182E0C80EF4
:103C0000D11CCA14DB0480F1A3014A195B096A01C3
:103C100082E0C80ED11C1296BC9012971396AC91FC
:103C2000B5E0CB16D10440F0B282A3835183408328
:103C3000D9016D937C930AC00E5F1F4FC301800FA3
:103C4000911FF90191838083EB2DFA2FE114F10488
:103C500031F0D7011396FC93EE93129744C0F09382
:103C6000CC05E093CB053FC08D919C9111974817EF
:103C7000590708F4AC017D0112960D90BC91A02D5E
:103C8000B3CF8091C9059091CA0588159905E1F4D3
:103C900046175707C8F48091090190910A010097CF
:103CA00041F48DB79EB740910D0150910E01841BD8
:103CB000950BE817F907C8F4F093CA05E093C90516
:103CC000F901718360830FC0CB010E94851C7C01C8
:103CD000009759F0A801BE010E94811ECE010E94EA
:103CE0001A1DC70104C0CE0102C080E090E0CDB72C
:103CF000DEB7EEE00C943D1981E090E0F8940C946E
:103D0000911EFB01DC0102C001900D924150504018
:103D1000D8F70895FB01DC0101900D920020E1F736
:103D2000089510E0C2E6D0E004C0FE010E947F1CAE
:0C3D30002196C336D107C9F7F894FFCFE5
:103D3C000609090600000000010000CD0580000006
:103D4C000000000006D005930CA405C805B405A519
:103D5C000500000000790B5506110BC00B420B201F
:103D6C000B340B00000000050C5506930C040C5989
:103D7C000C710CEC0B00000000160E5506930C9207
:103D8C000C4869212054686973206973204D5F5376
:103D9C00746174696F6E5F42542100537461727464
:103DAC00207631392E30372E3130000D0A00552057
:103DBC00626174203D2000D09ED188D0B8D0B1D0A3
:103DCC00BAD0B020D0BFD0BED0BBD183D187D0B5B4
:103DDC00D0BDD0B8D18F20D0B4D0B0D0BDD0BDD153
:103DEC008BD18520D18120D0B4D0B0D182D187D0D5
:103DFC00B8D0BAD0B0204448543131004572726FFB
:103E0C007220444854313100483A00543A00503A38
:103E1C00006D6D0041202D20D182D0B5D0BCD0BF1B
:103E2C00D0B5D180D0B0D182D183D180D0B02C206C
:103E3C00D0B0D182D0BC2E20D0B4D0B0D0B2D0BBB8
:103E4C00D0B5D0BDD0B8D0B52C20D0B2D0BBD0B06E
:103E5C00D0B6D0BDD0BED181D182D18C2E00542011
:103E6C002D20D182D0B5D0BCD0BFD0B5D180D0B0B0
:103E7C00D182D183D180D0B02E0050202D20D0B053
:103E8C00D182D0BC2E20D0B4D0B0D0B2D0BBD0B563
:103E9C00D0BDD0B8D0B52E0048202D20D0B2D0BB8C
:103EAC00D0B0D0B6D0BDD0BED181D182D18C2E00B5
:103EBC0056202D20D0B2D180D0B5D0BCD18F20D1FE
:103ECC008120D0BCD0BED0BCD0B5D0BDD182D0B0BA
:103EDC0020D0B2D0BAD0BBD18ED187D0B5D0BDD086
:103EEC00B8D18F2E0042202D20D0BDD0B0D0BFD164
:103EFC0080D18FD0B6D0B5D0BDD0B8D0B520D0BF82
:103F0C00D0B8D182D0B0D0BDD0B8D18F2028D0922B
:103F1C0020D0B2D0BED0BBD18CD182D0B0D185292B
:103F2C0000743D2000202A4300703D2000206D6D60
:103F3C0020486700683D200020250020560020699D
:103F4C0073206E6F74206120636F6D6D616E6421E0
:103F5C0000D09ED188D0B8D0B1D0BAD0B020D0BFCC
:103F6C00D0BED0BBD183D187D0B5D0BDD0B8D18F86
:103F7C0020D0B4D0B0D0BDD0BDD18BD18520D181D3
:103F8C0020D0B4D0B0D182D187D0B8D0BAD0B020A4
:103F9C00424D50323830004572726F7220424D5093
:103FAC00323830006E616E00696E66006F766600A6
:00000001FF
